{
  "contractName": "Project",
  "abi": [
    {
      "inputs": [],
      "stateMutability": "nonpayable",
      "type": "constructor"
    },
    {
      "inputs": [],
      "name": "nbrProjects",
      "outputs": [
        {
          "internalType": "uint256",
          "name": "",
          "type": "uint256"
        }
      ],
      "stateMutability": "view",
      "type": "function"
    },
    {
      "inputs": [
        {
          "internalType": "uint256",
          "name": "",
          "type": "uint256"
        }
      ],
      "name": "projects",
      "outputs": [
        {
          "internalType": "uint256",
          "name": "id",
          "type": "uint256"
        },
        {
          "internalType": "string",
          "name": "title",
          "type": "string"
        },
        {
          "internalType": "string",
          "name": "description",
          "type": "string"
        },
        {
          "internalType": "uint256",
          "name": "amountRaised",
          "type": "uint256"
        },
        {
          "internalType": "address payable",
          "name": "owner",
          "type": "address"
        }
      ],
      "stateMutability": "view",
      "type": "function"
    },
    {
      "inputs": [],
      "name": "smowner",
      "outputs": [
        {
          "internalType": "address",
          "name": "",
          "type": "address"
        }
      ],
      "stateMutability": "view",
      "type": "function"
    },
    {
      "inputs": [
        {
          "internalType": "string",
          "name": "_title",
          "type": "string"
        },
        {
          "internalType": "string",
          "name": "_description",
          "type": "string"
        }
      ],
      "name": "createProject",
      "outputs": [],
      "stateMutability": "nonpayable",
      "type": "function"
    },
    {
      "inputs": [
        {
          "internalType": "uint256",
          "name": "_idProject",
          "type": "uint256"
        },
        {
          "internalType": "uint256",
          "name": "_amount",
          "type": "uint256"
        }
      ],
      "name": "donate",
      "outputs": [],
      "stateMutability": "payable",
      "type": "function"
    },
    {
      "inputs": [
        {
          "internalType": "uint256",
          "name": "_idProject",
          "type": "uint256"
        }
      ],
      "name": "getDonors",
      "outputs": [
        {
          "internalType": "address[]",
          "name": "",
          "type": "address[]"
        },
        {
          "internalType": "uint256[]",
          "name": "",
          "type": "uint256[]"
        }
      ],
      "stateMutability": "view",
      "type": "function"
    }
  ],
  "bytecode": "0x608060405234801561000f575f80fd5b503360025f6101000a81548173ffffffffffffffffffffffffffffffffffffffff021916908373ffffffffffffffffffffffffffffffffffffffff1602179055505f80819055506111df806100635f395ff3fe608060405260043610610054575f3560e01c80630cdd53f614610058578063107046bd146100745780631e82d19e146100b457806329516511146100de5780636bd062041461011b57806383a9156214610143575b5f80fd5b610072600480360381019061006d919061083a565b61016d565b005b34801561007f575f80fd5b5061009a60048036038101906100959190610878565b61032a565b6040516100ab95949392919061097b565b60405180910390f35b3480156100bf575f80fd5b506100c8610496565b6040516100d591906109da565b60405180910390f35b3480156100e9575f80fd5b5061010460048036038101906100ff9190610878565b61049b565b604051610112929190610b72565b60405180910390f35b348015610126575f80fd5b50610141600480360381019061013c9190610cd3565b6106e4565b005b34801561014e575f80fd5b506101576107a3565b6040516101649190610d58565b60405180910390f35b5f548211156101b1576040517f08c379a00000000000000000000000000000000000000000000000000000000081526004016101a890610dbb565b60405180910390fd5b5f600180846101c09190610e06565b815481106101d1576101d0610e39565b5b905f5260205f209060060201905081816003015f8282546101f29190610e66565b925050819055506102016107c8565b33815f019073ffffffffffffffffffffffffffffffffffffffff16908173ffffffffffffffffffffffffffffffffffffffff1681525050828160200181815250508160050181908060018154018082558091505060019003905f5260205f2090600202015f909190919091505f820151815f015f6101000a81548173ffffffffffffffffffffffffffffffffffffffff021916908373ffffffffffffffffffffffffffffffffffffffff160217905550602082015181600101555050816004015f9054906101000a900473ffffffffffffffffffffffffffffffffffffffff1673ffffffffffffffffffffffffffffffffffffffff166108fc8490811502906040515f60405180830381858888f19350505050158015610323573d5f803e3d5ffd5b5050505050565b60018181548110610339575f80fd5b905f5260205f2090600602015f91509050805f01549080600101805461035e90610ec6565b80601f016020809104026020016040519081016040528092919081815260200182805461038a90610ec6565b80156103d55780601f106103ac576101008083540402835291602001916103d5565b820191905f5260205f20905b8154815290600101906020018083116103b857829003601f168201915b5050505050908060020180546103ea90610ec6565b80601f016020809104026020016040519081016040528092919081815260200182805461041690610ec6565b80156104615780601f1061043857610100808354040283529160200191610461565b820191905f5260205f20905b81548152906001019060200180831161044457829003601f168201915b505050505090806003015490806004015f9054906101000a900473ffffffffffffffffffffffffffffffffffffffff16905085565b5f5481565b6060805f548311156104e2576040517f08c379a00000000000000000000000000000000000000000000000000000000081526004016104d990610dbb565b60405180910390fd5b5f600180856104f19190610e06565b8154811061050257610501610e39565b5b905f5260205f20906006020190505f816005018054905090505f8167ffffffffffffffff81111561053657610535610baf565b5b6040519080825280602002602001820160405280156105645781602001602082028036833780820191505090505b5090505f8267ffffffffffffffff81111561058257610581610baf565b5b6040519080825280602002602001820160405280156105b05781602001602082028036833780820191505090505b5090505f5b838110156106d4575f8560050182815481106105d4576105d3610e39565b5b905f5260205f2090600202016040518060400160405290815f82015f9054906101000a900473ffffffffffffffffffffffffffffffffffffffff1673ffffffffffffffffffffffffffffffffffffffff1673ffffffffffffffffffffffffffffffffffffffff1681526020016001820154815250509050805f015184838151811061066257610661610e39565b5b602002602001019073ffffffffffffffffffffffffffffffffffffffff16908173ffffffffffffffffffffffffffffffffffffffff168152505080602001518383815181106106b4576106b3610e39565b5b6020026020010181815250505080806106cc90610ef6565b9150506105b5565b5081819550955050505050915091565b5f6001808160018154018082558091505003905f5260205f209060060201905060015f546107129190610e66565b815f01819055508281600101908161072a91906110da565b508181600201908161073c91906110da565b505f816003018190555033816004015f6101000a81548173ffffffffffffffffffffffffffffffffffffffff021916908373ffffffffffffffffffffffffffffffffffffffff1602179055505f8081548092919061079990610ef6565b9190505550505050565b60025f9054906101000a900473ffffffffffffffffffffffffffffffffffffffff1681565b60405180604001604052805f73ffffffffffffffffffffffffffffffffffffffff1681526020015f81525090565b5f604051905090565b5f80fd5b5f80fd5b5f819050919050565b61081981610807565b8114610823575f80fd5b50565b5f8135905061083481610810565b92915050565b5f80604083850312156108505761084f6107ff565b5b5f61085d85828601610826565b925050602061086e85828601610826565b9150509250929050565b5f6020828403121561088d5761088c6107ff565b5b5f61089a84828501610826565b91505092915050565b6108ac81610807565b82525050565b5f81519050919050565b5f82825260208201905092915050565b5f5b838110156108e95780820151818401526020810190506108ce565b5f8484015250505050565b5f601f19601f8301169050919050565b5f61090e826108b2565b61091881856108bc565b93506109288185602086016108cc565b610931816108f4565b840191505092915050565b5f73ffffffffffffffffffffffffffffffffffffffff82169050919050565b5f6109658261093c565b9050919050565b6109758161095b565b82525050565b5f60a08201905061098e5f8301886108a3565b81810360208301526109a08187610904565b905081810360408301526109b48186610904565b90506109c360608301856108a3565b6109d0608083018461096c565b9695505050505050565b5f6020820190506109ed5f8301846108a3565b92915050565b5f81519050919050565b5f82825260208201905092915050565b5f819050602082019050919050565b5f610a268261093c565b9050919050565b610a3681610a1c565b82525050565b5f610a478383610a2d565b60208301905092915050565b5f602082019050919050565b5f610a69826109f3565b610a7381856109fd565b9350610a7e83610a0d565b805f5b83811015610aae578151610a958882610a3c565b9750610aa083610a53565b925050600181019050610a81565b5085935050505092915050565b5f81519050919050565b5f82825260208201905092915050565b5f819050602082019050919050565b610aed81610807565b82525050565b5f610afe8383610ae4565b60208301905092915050565b5f602082019050919050565b5f610b2082610abb565b610b2a8185610ac5565b9350610b3583610ad5565b805f5b83811015610b65578151610b4c8882610af3565b9750610b5783610b0a565b925050600181019050610b38565b5085935050505092915050565b5f6040820190508181035f830152610b8a8185610a5f565b90508181036020830152610b9e8184610b16565b90509392505050565b5f80fd5b5f80fd5b7f4e487b71000000000000000000000000000000000000000000000000000000005f52604160045260245ffd5b610be5826108f4565b810181811067ffffffffffffffff82111715610c0457610c03610baf565b5b80604052505050565b5f610c166107f6565b9050610c228282610bdc565b919050565b5f67ffffffffffffffff821115610c4157610c40610baf565b5b610c4a826108f4565b9050602081019050919050565b828183375f83830152505050565b5f610c77610c7284610c27565b610c0d565b905082815260208101848484011115610c9357610c92610bab565b5b610c9e848285610c57565b509392505050565b5f82601f830112610cba57610cb9610ba7565b5b8135610cca848260208601610c65565b91505092915050565b5f8060408385031215610ce957610ce86107ff565b5b5f83013567ffffffffffffffff811115610d0657610d05610803565b5b610d1285828601610ca6565b925050602083013567ffffffffffffffff811115610d3357610d32610803565b5b610d3f85828601610ca6565b9150509250929050565b610d5281610a1c565b82525050565b5f602082019050610d6b5f830184610d49565b92915050565b7f494420646f65736e2774206578697374000000000000000000000000000000005f82015250565b5f610da56010836108bc565b9150610db082610d71565b602082019050919050565b5f6020820190508181035f830152610dd281610d99565b9050919050565b7f4e487b71000000000000000000000000000000000000000000000000000000005f52601160045260245ffd5b5f610e1082610807565b9150610e1b83610807565b9250828203905081811115610e3357610e32610dd9565b5b92915050565b7f4e487b71000000000000000000000000000000000000000000000000000000005f52603260045260245ffd5b5f610e7082610807565b9150610e7b83610807565b9250828201905080821115610e9357610e92610dd9565b5b92915050565b7f4e487b71000000000000000000000000000000000000000000000000000000005f52602260045260245ffd5b5f6002820490506001821680610edd57607f821691505b602082108103610ef057610eef610e99565b5b50919050565b5f610f0082610807565b91507fffffffffffffffffffffffffffffffffffffffffffffffffffffffffffffffff8203610f3257610f31610dd9565b5b600182019050919050565b5f819050815f5260205f209050919050565b5f6020601f8301049050919050565b5f82821b905092915050565b5f60088302610f997fffffffffffffffffffffffffffffffffffffffffffffffffffffffffffffffff82610f5e565b610fa38683610f5e565b95508019841693508086168417925050509392505050565b5f819050919050565b5f610fde610fd9610fd484610807565b610fbb565b610807565b9050919050565b5f819050919050565b610ff783610fc4565b61100b61100382610fe5565b848454610f6a565b825550505050565b5f90565b61101f611013565b61102a818484610fee565b505050565b5b8181101561104d576110425f82611017565b600181019050611030565b5050565b601f8211156110925761106381610f3d565b61106c84610f4f565b8101602085101561107b578190505b61108f61108785610f4f565b83018261102f565b50505b505050565b5f82821c905092915050565b5f6110b25f1984600802611097565b1980831691505092915050565b5f6110ca83836110a3565b9150826002028217905092915050565b6110e3826108b2565b67ffffffffffffffff8111156110fc576110fb610baf565b5b6111068254610ec6565b611111828285611051565b5f60209050601f831160018114611142575f8415611130578287015190505b61113a85826110bf565b8655506111a1565b601f19841661115086610f3d565b5f5b8281101561117757848901518255600182019150602085019450602081019050611152565b868310156111945784890151611190601f8916826110a3565b8355505b6001600288020188555050505b50505050505056fea2646970667358221220224039c7f95f22f5ff5e03540cc0f30abf443b4c48e7884f8ff41445a7201f3d64736f6c63430008140033",
  "immutableReferences": {},
  "source": "// SPDX-License-Identifier: MIT\r\npragma solidity ^0.8.8;\r\n\r\nstruct Donation {\r\n    address donor;\r\n    uint256 amount;\r\n}\r\n\r\nstruct ProjectStr {\r\n    uint256 id;\r\n    string title;\r\n    string description;\r\n    uint256 amountRaised;\r\n    address payable owner;\r\n    Donation[] donations;\r\n}\r\n\r\ncontract Project {\r\n    uint256 public nbrProjects;\r\n    ProjectStr[] public projects;\r\n    address public smowner;\r\n\r\n    modifier onlyOwner() {\r\n        require(msg.sender == smowner, \"Only the owner can call this function\");\r\n        _;\r\n    }\r\n\r\n    constructor() {\r\n        smowner = msg.sender;\r\n        nbrProjects = 0;\r\n    }\r\n\r\n    function createProject(string memory _title, string memory _description) public {\r\n\r\n        ProjectStr storage project = projects.push();\r\n        project.id = nbrProjects + 1;\r\n        project.title = _title;\r\n        project.description = _description;\r\n        project.amountRaised = 0;\r\n        project.owner = payable(msg.sender);\r\n\r\n        nbrProjects++;\r\n    }\r\n\r\n    function donate(uint256 _idProject, uint256 _amount) public payable {\r\n        require(_idProject <= nbrProjects, \"ID doesn't exist\");\r\n\r\n        ProjectStr storage project = projects[_idProject - 1];\r\n        project.amountRaised += _amount;\r\n\r\n        Donation memory donation;\r\n        donation.donor = msg.sender;\r\n        donation.amount = _amount;\r\n        project.donations.push(donation);\r\n\r\n        // Send the donated amount to the project owner\r\n        project.owner.transfer(_amount);\r\n    }\r\n\r\n    function getDonors(uint256 _idProject) public view returns (address[] memory, uint256[] memory) {\r\n        require(_idProject <= nbrProjects, \"ID doesn't exist\");\r\n\r\n        ProjectStr storage project = projects[_idProject - 1];\r\n        uint256 numDonors = project.donations.length;\r\n\r\n        address[] memory donorAddresses = new address[](numDonors);\r\n        uint256[] memory donationAmounts = new uint256[](numDonors);\r\n\r\n        for (uint256 i = 0; i < numDonors; i++) {\r\n            Donation memory donation = project.donations[i];\r\n            donorAddresses[i] = donation.donor;\r\n            donationAmounts[i] = donation.amount;\r\n        }\r\n\r\n        return (donorAddresses, donationAmounts);\r\n    }\r\n\r\n  \r\n}\r\n",
  "sourcePath": "C:\\Users\\DELL\\Desktop\\examblockchain\\contracts\\Projet.sol",
  "compiler": {
    "name": "solc",
    "version": "0.8.20+commit.a1b79de6.Emscripten.clang"
  },
  "schemaVersion": "3.4.14",
  "updatedAt": "2023-06-12T14:56:51.726Z",
  "devdoc": {
    "kind": "dev",
    "methods": {},
    "version": 1
  },
  "userdoc": {
    "kind": "user",
    "methods": {},
    "version": 1
  }
}